{
  "contractName": "HelloWorld",
  "abi": [
    {
      "inputs": [
        {
          "internalType": "uint256",
          "name": "_novoNumero",
          "type": "uint256"
        }
      ],
      "name": "setInt",
      "outputs": [],
      "stateMutability": "nonpayable",
      "type": "function"
    }
  ],
  "bytecode": "0x60806040526000805534801561001457600080fd5b5060e3806100236000396000f3fe6080604052348015600f57600080fd5b506004361060285760003560e01c80634442031114602d575b600080fd5b60436004803603810190603f91906085565b6045565b005b8060008190555050565b600080fd5b6000819050919050565b6065816054565b8114606f57600080fd5b50565b600081359050607f81605e565b92915050565b6000602082840312156098576097604f565b5b600060a4848285016072565b9150509291505056fea26469706673582212207f2417c6f8dbca6df8a66aa6f579c974c9898d25d9d3e2b3c2430b9bfb15fd0b64736f6c63430008110033",
  "immutableReferences": {},
  "source": "pragma solidity ^0.8.7;\r\n\r\ncontract HelloWorld {\r\n\r\n    uint meuNumero = 0;\r\n\r\n    function setInt(uint _novoNumero) public {\r\n        meuNumero = _novoNumero;\r\n    }\r\n\r\n}\r\n\r\n",
  "sourcePath": "D:\\Dev\\blockchain\\curso_web3\\aula04\\contracts\\HelloWorld.sol",
  "compiler": {
    "name": "solc",
    "version": "0.8.17+commit.8df45f5f.Emscripten.clang"
  },
  "schemaVersion": "3.4.10",
  "updatedAt": "2022-11-15T14:22:27.686Z",
  "networkType": "ethereum",
  "devdoc": {
    "kind": "dev",
    "methods": {},
    "version": 1
  },
  "userdoc": {
    "kind": "user",
    "methods": {},
    "version": 1
  }
}